:020000040800F2
:1000000000A000209D1A00088D0500088F0500083B
:100010009105000893050008950500080000000000
:10002000000000000000000000000000970500082C
:1000300099050008000000009B0500089D050008C8
:10004000ED1A0008ED1A0008ED1A0008ED1A000874
:10005000ED1A0008ED1A0008ED1A0008ED1A000864
:10006000ED1A0008ED1A0008ED1A0008ED1A000854
:10007000ED1A0008ED1A0008ED1A0008ED1A000844
:10008000ED1A0008ED1A0008ED1A0008ED1A000834
:10009000ED1A0008ED1A0008ED1A0008ED1A000824
:1000A000ED1A0008ED1A0008ED1A0008ED1A000814
:1000B000ED1A0008ED1A0008ED1A0008ED1A000804
:1000C000ED1A0008ED1A0008ED1A0008ED1A0008F4
:1000D000ED1A0008ED1A0008ED1A0008ED1A0008E4
:1000E000ED1A0008ED1A0008ED1A0008ED1A0008D4
:1000F000ED1A0008ED1A0008ED1A0008ED1A0008C4
:10010000000000000000000000000000ED1A0008E0
:10011000ED1A0008ED1A0008ED1A0008ED1A0008A3
:10012000ED1A0008ED1A0008ED1A0008ED1A000893
:10013000ED1A0008ED1A00080000000000000000A1
:10014000ED1A0008ED1A0008ED1A00080000000082
:10015000000000000000000000000000000000009F
:100160000000000000000000ED1A0008ED1A000871
:10017000ED1A000800000000000000000000000070
:0801800000000000ED1A000868
:1001880010B5054C237833B9044B13B10448AFF3C9
:1001980000800123237010BD0C0000200000000027
:1001A800481B000808B5034B1BB103490348AFF3CC
:1001B800008008BD0000000010000020481B000857
:1001C80072B6FEE700B59FB02822002114A801F0FE
:1001D800AFFC00210F9110911191129113913C22C3
:1001E800684601F0A5FC032314934FF4A02315934C
:1001F800012318931023199302231B934FF4803380
:100208001C934FF480131D9314A800F0BDFCE0B9B3
:100218000F230F9302231093002311934FF480624E
:100228001292139301210FA801F000F878B90A4B34
:100238000093002307934FF480030E93684601F060
:10024800C9F830B91FB05DF804FBFFF7B9FFFFF735
:10025800B7FFFFF7B5FF00BF2000020000B583B06D
:1002680000F06EFCFFF7AEFF00F024F800F082F813
:1002780000F0E2F800F03AF90A4B44221A7088229A
:100288005A70012400940223064A9021064800F07F
:1002980019FB064B186022464FF48051044801F0C0
:1002A800ADFAEEE728000020300000202C000020E6
:1002B8000010004870B58AB000240594069407948D
:1002C80008940994294B5A6942F400125A615A69F0
:1002D80002F400120092009A5A6942F400225A610C
:1002E8005A6902F400220192019A5A6942F4800282
:1002F8005A615A6902F480020292029A5A6942F4D7
:1003080000325A615A6902F400320392039A5A6918
:1003180042F480225A615B6903F480230493049BAE
:10032800134D22464FF60871284601F067FA372325
:1003380005934FF490130693079405A9284601F0F6
:1003480079F94FF6087305930126069607940894E1
:1003580005A9284601F06EF905960694079405A9A3
:100368004FF0904001F066F90AB070BD00100240ED
:100378000010004808B51348134B036040F20B23E4
:100388004360002383600122C2600361436183618B
:10039800C361036200F038FA50B90021094800F03F
:1003A8004FFB40B90021074800F078FB30B908BD81
:1003B800FFF706FFF1E7FFF703FFF3E7FFF700FF9B
:1003C800F5E700BF300000200054004010B588B0A9
:1003D8000023039304930593069307930268134B32
:1003E8009A4201D008B010BD114C636943F48023D0
:1003F8006361636903F480230193019BC023039322
:1004080012230493012305930323069304230793DC
:1004180003A9084801F00EF9E36943F40013E36106
:10042800E36903F400130293029BDBE700540040E6
:10043800001002400004004808B51048104B036043
:100448004FF482734360002383604FF44072C260AC
:10045800036143614FF4007282610822C261036242
:10046800436283620721C1620363426301F02AFA8F
:1004780000B908BDFFF7A4FEFBE700BF7C00002021
:100488000030014000B589B000230393049305931D
:10049800069307930268144B9A4202D009B05DF89C
:1004A80004FB03F560439A6942F480529A619A69A1
:1004B80002F480520192019A5A6942F400325A6158
:1004C8005B6903F400330293029BE0230393022346
:1004D8000493032306930523079303A94FF0904041
:1004E80001F0A8F8DAE700BF0030014008B5094874
:1004F800094B0360082343600223836003610023E0
:100508008361036201F052FA00B908BDFFF758FE93
:10051800FBE700BFE0000020005C004010B588B099
:100528000023039304930593069307930268134BE0
:100538009A4201D008B010BD114C636943F40033EE
:100548006361636903F400330193019B4FF4C05363
:10055800039302230493032306930E23079303A90B
:100568004FF0904001F066F8E36943F40003E3615B
:10057800E36903F400030293029BDBE7005C00409D
:1005880000100240FEE7FEE7FEE7FEE7FEE77047E1
:100598007047704708B500F0E5FA08BD00B583B0AC
:1005A8000C4B9A6942F001029A619A6902F00102C1
:1005B8000092009ADA6942F08052DA61DB6903F04E
:1005C80080530193019B072001F01EF903B05DF8E9
:1005D80004FB00BF00100240B0F8403023F47C5305
:1005E8005B045B0CA0F840300020704784B0844660
:1005F80001A880E80E000123ACF840300020ACF8D8
:100608004000ACF84400ACF8500004B070470368F0
:100618009A6912F0020F01D000229A6203689A695F
:1006280012F0010F03D19A6942F001029A617047F2
:1006380030B4029D046860684FEA555C0CF4806C25
:100648004CF07F7C4CF4583C4CF47F7C4CF0030C11
:1006580020EA0C00C1F3090141EA02411943294388
:100668000143616030BC7047F8B50E46036899696C
:1006780011F0100F46D0054617465A6812F0007F51
:1006880003D15A6842F480425A602B689C6914F07E
:10069800200F17D1B6F1FF3FF7D000F06FFAC01B5B
:1006A800B04201D8002EF0D16B6C43F020036B648C
:1006B800202385F84130002385F8423085F8403002
:1006C800012020E01022DA612B682024DC61284612
:1006D800FFF79DFF2A68536823F0FF7323F48B33D9
:1006E80023F4FF7323F0010353606B6C43F004039E
:1006F8006B6485F84140002385F8423085F8403026
:10070800012000E00020F8BD70B504460D461646ED
:1007180023689B6913F0020F1DD1324629462046F3
:10072800FFF7A2FFC8B9B5F1FF3FF1D000F026FAF4
:10073800801BA84201D8002DEAD1636C43F0200346
:100748006364202384F84130002384F8423084F81D
:100758004030012000E0002070BD0120FCE72DE9B9
:10076800F0410646884617461D463468A46938EAAB
:1007780004030CBF4FF0010C4FF0000CBC4518D11E
:10078800B5F1FF3FF1D000F0F9F9069BC01AA84275
:1007980001D8002DE9D1736C43F020037364202342
:1007A80086F84130002386F8423086F84030012030
:1007B80000E00020BDE8F08170B505460C461646FD
:1007C8002B689B6913F0200F1AD132462146284620
:1007D800FFF74AFFB0B900F0D1F9801BA04201D859
:1007E800002CEDD16B6C43F020036B64202385F85B
:1007F8004130002385F8423085F84030012070BD33
:100808000020FCE70120FAE7002859D010B504467B
:1008180090F84130002B43D0242384F841302268DB
:10082800136823F0010313606368226823F0706380
:1008380013612268936823F400439360E368012BF3
:1008480033D0A368226843F404439360E368022B1F
:1008580031D02268536843F0007343F40043536077
:100868002268D36823F40043D36023696269134381
:10087800A169226843EA0123D360E369216A2268F7
:100888000B4313602268136843F0010313600020D0
:100898006064202384F84130206384F8420010BD4E
:1008A80080F84030FFF792FDB6E7A368226843F46A
:1008B80000439360CAE723684FF400625A60C8E7B0
:1008C800012070472DE9F04782B00F460A9E90F844
:1008D8004110C9B2202940F0A380044690469946A9
:1008E80090F84030012B00F09F804FF0010A80F80B
:1008F80040A000F043F905460090192352464FF4F2
:1009080000412046FFF72BFF002840F08F8021236D
:1009180084F84130102384F8423000236364C4F81B
:100928002480A4F82A906363638D9BB2FF2B0AD9B5
:10093800FF222285414B00934FF0807339462046B1
:10094800FFF776FE18E0628D92B222853B4B00934A
:100958004FF00073D2B239462046FFF769FE0BE02C
:10096800628D92B22285002300934FF00073D2B2B9
:1009780039462046FFF75CFE638D9BB2002B33D0CF
:100988002A4631462046FFF7BFFE002850D1626A4A
:10099800236812789A62636A01336362638D9BB23B
:1009A800013B9BB26385238D013B9BB22385628DFE
:1009B80092B2002AE0D0002BDED100953346002207
:1009C80080212046FFF7CBFEA0BB638D9BB2FF2B97
:1009D800C6D9FF222285002300934FF08073394641
:1009E8002046FFF725FEC7E72A4631462046FFF78F
:1009F800E3FE08BB23682022DA6121684B6823F0F4
:100A0800FF7323F48B3323F4FF7323F001034B604C
:100A180084F84120002384F8423084F8403000E014
:100A2800022002B0BDE8F0870220FAE70120F8E7CB
:100A38000120F6E70120F4E70120F2E7002000801A
:100A480090F84130DBB2202B24D190F84030012BB4
:100A580022D0012380F84030242380F841300268F6
:100A6800136823F0010313600268136823F48053AA
:100A7800136002681368194311600268136843F031
:100A880001031360202380F84130002380F84030B0
:100A980018467047022070470220704790F841308E
:100AA800DBB2202B22D190F84030012B20D001233B
:100AB80080F84030242380F841300268136823F01E
:100AC800010313600268136823F4706343EA012189
:100AD80011600268136843F001031360202380F853
:100AE8004130002380F84030184670470220704794
:100AF8000220704710B504460E4B18784FF47A73ED
:100B0800B3FBF0F30C4A1068B0FBF3F000F0C6FE3C
:100B180068B90F2C01D901200AE0002221464FF0C4
:100B2800FF3000F083FE054B1C60002000E0012030
:100B380010BD00BF000000200800002004000020B5
:100B480008B5074A136843F010031360032000F048
:100B58005BFE0020FFF7CEFFFFF720FD002008BD59
:100B680000200240034A1168034B1B780B441360B2
:100B7800704700BFCC03002000000020014B18681C
:100B8800704700BFCC030020002800F0018370B537
:100B980082B00446036813F0010F3BD0B54B5B6885
:100BA80003F00C03042B1ED0B24B5B6803F00C035C
:100BB800082B13D06368B3F5803F68D0002B40F052
:100BC800928003F1804303F504331A6822F48032DB
:100BD8001A601A6822F480221A605DE0A54B5B68EF
:100BE80013F4803FE6D04FF4003393FAA3F3A14BFC
:100BF80019684FF4003393FAA3F3B3FA83F303F0BD
:100C08001F03012202FA03F30B4203D06368002B8F
:100C180000F0C082236813F0020F00F0C580954BE6
:100C28005B6813F00C0F00F09C80924B5B6803F03C
:100C38000C03082B00F08F802369002B00F0F28052
:100C4800012292FAA2F3B3FA83F303F1845303F572
:100C580084139B001A60FFF791FF0546022393FA5D
:100C6800A3F3844B1968022393FAA3F3B3FA83F32B
:100C780003F01F03012202FA03F30B4240F0C38082
:100C8800FFF77CFF401B0228E8D903208BE2794A52
:100C9800136843F480331360764AD36A23F00F0352
:100CA800A1680B43D3626368002B36D0FFF766FF59
:100CB80005464FF4003393FAA3F36E4B19684FF4CB
:100CC800003393FAA3F3B3FA83F303F01F0301226B
:100CD80002FA03F30B429DD1FFF750FF401B642833
:100CE800E7D903205FE2B3F5A02F09D0614B1A685A
:100CF80022F480321A601A6822F480221A60CBE744
:100D080003F18043A3F53C331A6842F480221A6049
:100D18001A6842F480321A60BEE7FFF72FFF0546D3
:100D28004FF4003393FAA3F3524B19684FF400338E
:100D380093FAA3F3B3FA83F303F01F03012202FA31
:100D480003F30B423FF466AFFFF718FF401B64281C
:100D5800E6D9032027E2474B5B6813F4803F7FF412
:100D68006BAF022393FAA3F3424B1968022393FA59
:100D7800A3F3B3FA83F303F01F03012202FA03F388
:100D88000B4203D02369934240F006823948036836
:100D980023F0F8036169F82292FAA2F2B2FA82F219
:100DA80001FA02F213430360236813F0080F00F0FE
:100DB8008D80A369002B61D0012191FAA1F2B2FACA
:100DC80082F22D4B13449B001960FFF7D7FE0546AE
:100DD800022393FAA3F293FAA3F293FAA3F2254A11
:100DE800516A93FAA3F3B3FA83F303F01F030122C2
:100DF80002FA03F30B4269D1FFF7C0FE401B022839
:100E0800E6D90320CFE11B48036823F0F8036169A2
:100E1800F82292FAA2F2B2FA82F201FA02F213432B
:100E28000360C1E7012393FAA3F3B3FA83F303F151
:100E3800845303F584139B0000221A60FFF79EFE7B
:100E48000546022393FAA3F30A4B1968022393FA7F
:100E5800A3F3B3FA83F303F01F03012202FA03F3A7
:100E68000B42A1D0FFF78AFE401B0228E9D90320D4
:100E780099E100BF0010024020819010012292FAEF
:100E8800A2F2B2FA82F2B74B13449B0000221A6016
:100E9800FFF774FE0546022393FAA3F293FAA3F22E
:100EA80093FAA3F2B04A516A93FAA3F3B3FA83F31D
:100EB80003F01F03012202FA03F30B4206D0FFF7E7
:100EC8005DFE401B0228E6D903206CE1236813F07D
:100ED800040F00F0A980A44BDB6913F0805F20D1D8
:100EE800A14BDA6942F08052DA61DB6903F0805382
:100EF8000193019B01259D4B1B6813F4807F12D041
:100F0800E368012B23D073BB03F1804303F504335B
:100F18001A6A22F001021A621A6A22F004021A629C
:100F28001AE00025E7E7914A136843F480731360D9
:100F3800FFF724FE06468D4B1B6813F4807FDFD134
:100F4800FFF71CFE801B6428F5D903202BE1864A95
:100F5800136A43F001031362E368002B3CD0FFF7E8
:100F68000DFE06462BE0052B09D07F4B1A6A22F0AE
:100F780001021A621A6A22F004021A62ECE77A4B3A
:100F88001A6A42F004021A621A6A42F001021A62EC
:100F9800E2E7754B196A022393FAA3F3B3FA83F3D2
:100FA80003F01F03012202FA03F319423BD1FFF7B2
:100FB800E5FD801B41F28833984200F2EF8002235E
:100FC80093FAA3F293FAA3F3002BE2D1022393FA44
:100FD800A3F3654B596ADEE7FFF7D0FD064615E037
:100FE800614B196A022393FAA3F3B3FA83F303F06C
:100FF8001F03012202FA03F3194214D0FFF7BEFDC2
:10100800801B41F28833984200F2CA80022393FA87
:10101800A3F293FAA3F3002BE2D1022393FAA3F3EA
:10102800514B596ADEE7B5BBE369002B00F0BA8083
:101038004D4A526802F00C02082A00F09980022BEF
:101048002FD04FF0807393FAA3F3B3FA83F303F12D
:10105800845303F584139B0000221A60FFF78EFD6A
:1010680004464FF0007393FAA3F33F4B19684FF00F
:10107800007393FAA3F3B3FA83F303F01F03012277
:1010880002FA03F319426BD0FFF778FD001B022820
:10109800E7D9032087E0344AD36923F08053D3612A
:1010A800C2E74FF0807393FAA3F3B3FA83F303F123
:1010B800845303F584139B0000221A60FFF75EFD3A
:1010C80005464FF0007393FAA3F3274B19684FF0C6
:1010D800007393FAA3F3B3FA83F303F01F03012217
:1010E80002FA03F3194206D0FFF748FD401B022815
:1010F800E7D9032057E01C494B6823F47413626A4C
:10110800206A024313434B604FF0807393FAA3F3B2
:10111800B3FA83F303F1845303F584139B0001228C
:101128001A60FFF72BFD04464FF0007393FAA3F300
:101138000D4B19684FF0007393FAA3F3B3FA83F3D6
:1011480003F01F03012202FA03F3194206D1FFF745
:1011580015FD001B0228E7D9032024E0002022E027
:10116800002020E020819010001002400070004014
:10117800012B1AD0104B5B6803F48031226A91422C
:1011880015D103F47013626A934212D100200AE069
:1011980001207047012006E0012004E0032002E05E
:1011A800032000E0002002B070BD0120FBE7012011
:1011B800F9E70120F7E700BF00100240164B5B6813
:1011C80003F00C02082A01D01448704703F4701188
:1011D8004FF4701292FAA2F2B2FA82F221FA02F2F3
:1011E8000F49885C0C4AD26A02F00F020F2191FA6B
:1011F800A1F1B1FA81F1CA400A498A5C13F4803F2F
:1012080005D0064BB3FBF2F303FB00F07047064B27
:1012180003FB00F0704700BF0010024000127A0084
:10122800601B0008701B000800093D00002800F042
:10123800BE8070B50D460446614B1B6803F007037A
:101248008B420BD25E4A136823F007030B431360EB
:10125800136803F007038B4240F0AB80236813F058
:10126800020F06D0574A536823F0F003A1680B43D6
:101278005360236813F0010F5AD06368012B2DD0F7
:10128800022B40D0022292FAA2F24E4A10680222A1
:1012980092FAA2F2B2FA82F202F01F02012101FAD6
:1012A80002F2104200F0878046494A6822F00302A1
:1012B80013434B60FFF762FC0646424B5B6803F042
:1012C8000C036268B3EB820F32D0FFF757FC801B28
:1012D80041F288339842F0D9032067E04FF4003296
:1012E80092FAA2F2374A10684FF4003292FAA2F248
:1012F800B2FA82F202F01F02012101FA02F202425E
:10130800D2D1012052E04FF0007292FAA2F22D4A97
:1013180010684FF0007292FAA2F2B2FA82F202F06A
:101328001F02012101FA02F21042BDD101203DE065
:10133800234B1B6803F00703AB420AD9204A136802
:1013480023F007032B431360136803F00703AB4232
:1013580033D1236813F0040F06D01A4A536823F4D4
:10136800E063E1680B435360236813F0080F07D06C
:10137800144A536823F46053216943EAC103536054
:10138800FFF71CFF0F4B5B6803F0F003F02292FAA3
:10139800A2F2B2FA82F2D3400B4AD35CD8400B4B8C
:1013A80018600B4B1868FFF7A5FB002070BD0120E3
:1013B80070470120FAE70120F8E70120F6E700BFAF
:1013C8000020024000100240801B00080800002096
:1013D80004000020F0B583B00446036813F4803F8E
:1013E80048D0914BDB6913F0805F40F0D4808E4B7E
:1013F800DA6942F08052DA61DB6903F080530193C5
:10140800019B0125894B1B6813F4807F00F0C58080
:10141800854B1B6A13F4407322D0626802F4407251
:101428009A421DD08048016A21F440764FF48033F7
:1014380093FAA3F2B2FA82F27D4F3A4492004FF047
:10144800010CC2F800C093FAA3F3B3FA83F33B4448
:101458009B0000221A60066211F0010F40F0B28072
:10146800714A136A23F4407361680B431362002DB9
:1014780040F0CF80236813F0010F06D06A4A136B3F
:1014880023F00303A1680B431363236813F0020FCF
:1014980006D0654A136B23F44033E1680B431363AA
:1014A800236813F0040F06D05F4A136B23F440231C
:1014B80021690B431363236813F0200F06D05A4A9F
:1014C800136B23F01003E1690B431363236813F4D0
:1014D800003F06D0544A536823F48003A16B0B43A2
:1014E8005360236813F0400F06D04F4A136B23F064
:1014F8002003216A0B431363236813F0080F06D0F7
:10150800494A136B23F4401361690B43136323683F
:1015180013F0100F06D0444A136B23F44003A1695B
:101528000B431363236813F4007F06D03E4A5368C5
:1015380023F40003E16A0B435360236813F0800F20
:1015480006D0394AD36A23F4F873616A0B43D3622D
:10155800236813F4807F06D0334AD36A23F4785380
:10156800A16A0B43D362236813F4805F06D02E4A26
:10157800136B23F48073216B0B431363236813F4F9
:10158800005F4DD0284A136B23F40073616B0B4343
:101598001363002045E0002534E7244A136843F428
:1015A80080731360FFF7EAFA0646204B1B6813F4B2
:1015B800807F7FF42DAFFFF7E1FA801B6428F4D910
:1015C80003202EE0FFF7DAFA064615E0164B196AF3
:1015D800022393FAA3F3B3FA83F303F01F03012260
:1015E80002FA03F30B427FF43BAFFFF7C7FA801B05
:1015F80041F28833984211D8022393FAA3F293FA5E
:10160800A3F3002BE2D1022393FAA3F3064B596A02
:10161800DEE7D36923F08053D3612BE7032000E092
:10162800002003B0F0BD00BF001002400070004071
:1016380000819010F0B583B0002362E085685E00F9
:101648000324B44025EA0405CC68B4402C438460E4
:10165800446824EA0C0C4C68C4F300149C4044EA27
:101668000C0444605EE0DD08083550F8256003F09E
:1016780007044FEA840C0F2404FA0CF426EA040E3B
:101688000C6904FA0CF444EA0E0440F8254060E0C2
:10169800042400E0002404FA0EF42C430CF1020C9C
:1016A800524D45F82C40524C2568D44325EA020691
:1016B8004F6817F4803F01D042EA05064C4D2E6072
:1016C8006D6804EA05064F6817F4003F01D042EA46
:1016D8000506474D6E60AD6804EA05064F6817F4C5
:1016E800801F01D042EA0506414DAE60ED682C40EE
:1016F8004E6816F4001F01D042EA05043C4AD46043
:1017080001330A6832FA03F46ED04FF0010C0CFA78
:1017180003FC1CEA0202F3D04C6804F00304013C09
:10172800012C8BD94C6804F00304032C0CD0C4683A
:101738005D004FF0030C0CFA05FC24EA0C0C8C68D5
:10174800AC4044EA0C04C4604C6804F00304022C66
:1017580089D004684FEA430E4FF0030C0CFA0EFCD4
:1017680024EA0C0C4C6804F0030404FA0EF444EA6E
:101778000C0404604C6814F4403FC1D01D4CA569AA
:1017880045F00105A561A46904F001040194019CD8
:101798004FEA930C0CF10205144C54F8255003F051
:1017A80003044FEA840E0F2404FA0EF425EA040514
:1017B800B0F1904F3FF46EAF0F4CA0420ED004F53D
:1017C8008064A0420CD004F58064A0420AD004F5DD
:1017D8008064A0423FF45CAF05245CE701245AE72B
:1017E800022458E7032456E703B0F0BD0000014087
:1017F8000004014000100240000400480AB1816161
:101808007047816270470000074AD36823F4E06399
:101818001B041B0C000200F4E060034343F0BF63A9
:1018280043F40033D360704700ED00E000B5194B76
:10183800DB68C3F30223C3F1070CBCF1040F28BF14
:101848004FF0040C03F1040EBEF1060F18D9033B48
:101858004FF0FF3E0EFA0CFC21EA0C0199400EFAFB
:1018680003F322EA0303194300280BDB0901C9B279
:1018780000F1604000F5614080F800135DF804FB5A
:101888000023E5E700F00F000901C9B2024B195423
:10189800F4E700BF00ED00E014ED00E00138B0F11E
:1018A800807F0BD24FF0E0235861054AF02182F87F
:1018B80023100020986107221A61704701207047A1
:1018C80000ED00E000286FD010B50446436A33B934
:1018D8004368B3F5827F05D00023C36102E000238B
:1018E800036143610023A36294F85D30002B52D05A
:1018F800022384F85D302268136823F040031360E4
:10190800E368B3F5E06F4CD90022B3F5706F04D0EB
:10191800B3F5E06F01D00023A362636803F4827318
:10192800A16801F404410B43216901F002010B4352
:10193800616901F001010B43A16901F400710B43D6
:10194800E16901F038010B43216A01F080010B4382
:10195800A16A01F4005120680B430360638B03F014
:101968000403616A01F010010B43616B01F0080187
:101978000B43E16801F470610B43216813434B602A
:101988002268D36923F40063D36100202066012311
:1019980084F85D3010BD84F85C302046FEF772FD97
:1019A800A6E74FF48052B0E701207047002864D0C2
:1019B80030B587B0044690F8A9323BB1032384F8C8
:1019C800A9322068FEF708FE00231FE080F8A8323D
:1019D800FEF7A4FDF2E75A1C02EB820104EBC101F9
:1019E8000120487002EB820104F8313003EB8301D7
:1019F80004EBC101CB8602EB820C04EBCC0C00207B
:101A08008CF803008863C8630864D3B260688342B3
:101A1800E1D3002316E003EB830204EBC2020021AA
:101A280082F8691182F8683182F86B11C2F878116E
:101A3800C2F87C1103EB830204EBC202C2F88011E6
:101A48000133DBB29842E6D8A4465CF8105BEE4658
:101A5800BCE80F00AEE80F00DCF80030CEF800302C
:101A6800231D0ECB2846FEF7C1FD002084F8240074
:101A7800012384F8A93207B030BD01207047000067
:101A8800034AD2F8883043F47003C2F888307047AC
:101A980000ED00E0DFF834D00D480E490E4A00236F
:101AA80002E0D458C4500433C4188C42F9D30B4A0A
:101AB8000B4C002301E013600432A242FBD3FFF772
:101AC800DFFF00F011F8FEF7C9FBFEE700A00020D9
:101AD800000000200C000020981B00080C000020CB
:101AE800D0030020FEE7000070B50D4D0D4C641BBF
:101AF800A4100026A64209D10B4D0C4C00F020F88A
:101B0800641BA4100026A64205D170BD55F8043BFD
:101B180098470136EEE755F8043B98470136F2E757
:101B2800901B0008901B0008901B0008941B0008DD
:101B380002440346934200D1704703F8011BF9E7BA
:101B4800F8B500BFF8BC08BC9E467047F8B500BFA2
:081B5800F8BC08BC9E46704772
:101B600002030405060708090A0B0C0D0E0F1010DE
:101B70000102030405060708090A0B0C0D0E0F10DD
:101B8000000000000000000001020304060708092D
:041B9000AD0100089B
:041B940089010008BB
:0C1B9800010000001000000000127A00A4
:0400000508001A9D38
:00000001FF
